{
  "_format": "hh-sol-artifact-1",
  "contractName": "ActorRegistry",
  "sourceName": "contracts/ActorRegistry.sol",
  "abi": [
    {
      "inputs": [],
      "stateMutability": "nonpayable",
      "type": "constructor"
    },
    {
      "anonymous": false,
      "inputs": [
        {
          "indexed": true,
          "internalType": "address",
          "name": "actor",
          "type": "address"
        },
        {
          "indexed": false,
          "internalType": "enum ActorRegistry.Role",
          "name": "role",
          "type": "uint8"
        }
      ],
      "name": "ActorRegistered",
      "type": "event"
    },
    {
      "inputs": [
        {
          "internalType": "address",
          "name": "",
          "type": "address"
        }
      ],
      "name": "actorRoles",
      "outputs": [
        {
          "internalType": "enum ActorRegistry.Role",
          "name": "",
          "type": "uint8"
        }
      ],
      "stateMutability": "view",
      "type": "function"
    },
    {
      "inputs": [
        {
          "internalType": "address",
          "name": "_actorAddress",
          "type": "address"
        }
      ],
      "name": "getActorRole",
      "outputs": [
        {
          "internalType": "enum ActorRegistry.Role",
          "name": "",
          "type": "uint8"
        }
      ],
      "stateMutability": "view",
      "type": "function"
    },
    {
      "inputs": [
        {
          "internalType": "address",
          "name": "_actorAddress",
          "type": "address"
        }
      ],
      "name": "isActorRegistered",
      "outputs": [
        {
          "internalType": "bool",
          "name": "",
          "type": "bool"
        }
      ],
      "stateMutability": "view",
      "type": "function"
    },
    {
      "inputs": [],
      "name": "owner",
      "outputs": [
        {
          "internalType": "address",
          "name": "",
          "type": "address"
        }
      ],
      "stateMutability": "view",
      "type": "function"
    },
    {
      "inputs": [
        {
          "internalType": "address",
          "name": "_actorAddress",
          "type": "address"
        },
        {
          "internalType": "enum ActorRegistry.Role",
          "name": "_role",
          "type": "uint8"
        }
      ],
      "name": "registerActor",
      "outputs": [],
      "stateMutability": "nonpayable",
      "type": "function"
    }
  ],
  "bytecode": "0x60806040523480156200001157600080fd5b50336000806101000a81548173ffffffffffffffffffffffffffffffffffffffff021916908373ffffffffffffffffffffffffffffffffffffffff160217905550620000b96040518060400160405280601e81526020017f4163746f725265676973747279206465706c6f7965642c206f776e65723a000081525060008054906101000a900473ffffffffffffffffffffffffffffffffffffffff16620000bf60201b60201c565b62000311565b620001618282604051602401620000d8929190620002ae565b6040516020818303038152906040527f319af333000000000000000000000000000000000000000000000000000000007bffffffffffffffffffffffffffffffffffffffffffffffffffffffff19166020820180517bffffffffffffffffffffffffffffffffffffffffffffffffffffffff83818316178352505050506200016560201b60201c565b5050565b6200018b81620001866200018e60201b6200059517620001af60201b60201c565b60201c565b50565b60006a636f6e736f6c652e6c6f679050600080835160208501845afa505050565b620001c360201b6200067d17819050919050565b620001cd620002e2565b565b600081519050919050565b600082825260208201905092915050565b60005b838110156200020b578082015181840152602081019050620001ee565b60008484015250505050565b6000601f19601f8301169050919050565b60006200023582620001cf565b620002418185620001da565b935062000253818560208601620001eb565b6200025e8162000217565b840191505092915050565b600073ffffffffffffffffffffffffffffffffffffffff82169050919050565b6000620002968262000269565b9050919050565b620002a88162000289565b82525050565b60006040820190508181036000830152620002ca818562000228565b9050620002db60208301846200029d565b9392505050565b7f4e487b7100000000000000000000000000000000000000000000000000000000600052605160045260246000fd5b610c1780620003216000396000f3fe608060405234801561001057600080fd5b50600436106100575760003560e01c80632bc6aa4e1461005c5780638da5cb5b1461008c5780639da5e5da146100aa578063de7ac991146100da578063e3a00ef1146100f6575b600080fd5b610076600480360381019061007191906106ea565b610126565b6040516100839190610732565b60405180910390f35b6100946101a3565b6040516100a1919061075c565b60405180910390f35b6100c460048036038101906100bf91906106ea565b6101c7565b6040516100d191906107ee565b60405180910390f35b6100f460048036038101906100ef919061082e565b6101e7565b005b610110600480360381019061010b91906106ea565b61053f565b60405161011d91906107ee565b60405180910390f35b600080600481111561013b5761013a610777565b5b600160008473ffffffffffffffffffffffffffffffffffffffff1673ffffffffffffffffffffffffffffffffffffffff16815260200190815260200160002060009054906101000a900460ff16600481111561019a57610199610777565b5b14159050919050565b60008054906101000a900473ffffffffffffffffffffffffffffffffffffffff1681565b60016020528060005260406000206000915054906101000a900460ff1681565b60008054906101000a900473ffffffffffffffffffffffffffffffffffffffff1673ffffffffffffffffffffffffffffffffffffffff163373ffffffffffffffffffffffffffffffffffffffff1614610275576040517f08c379a000000000000000000000000000000000000000000000000000000000815260040161026c906108f1565b60405180910390fd5b600073ffffffffffffffffffffffffffffffffffffffff168273ffffffffffffffffffffffffffffffffffffffff16036102e4576040517f08c379a00000000000000000000000000000000000000000000000000000000081526004016102db90610983565b60405180910390fd5b600060048111156102f8576102f7610777565b5b600160008473ffffffffffffffffffffffffffffffffffffffff1673ffffffffffffffffffffffffffffffffffffffff16815260200190815260200160002060009054906101000a900460ff16600481111561035757610356610777565b5b14610397576040517f08c379a000000000000000000000000000000000000000000000000000000000815260040161038e90610a15565b60405180910390fd5b600060048111156103ab576103aa610777565b5b8160048111156103be576103bd610777565b5b036103fe576040517f08c379a00000000000000000000000000000000000000000000000000000000081526004016103f590610aa7565b60405180910390fd5b80600160008473ffffffffffffffffffffffffffffffffffffffff1673ffffffffffffffffffffffffffffffffffffffff16815260200190815260200160002060006101000a81548160ff021916908360048111156104605761045f610777565b5b02179055506104ed6040518060400160405280601181526020017f52656769737465726564204163746f723a000000000000000000000000000000815250836040518060400160405280600a81526020017f7769746820526f6c653a000000000000000000000000000000000000000000008152508460048111156104e8576104e7610777565b5b6105b6565b8173ffffffffffffffffffffffffffffffffffffffff167f9d298435d839e75ea5c40e98fc6aa208cc7c2a9ba6ffb5d9703e179bcf1b248e8260405161053391906107ee565b60405180910390a25050565b6000600160008373ffffffffffffffffffffffffffffffffffffffff1673ffffffffffffffffffffffffffffffffffffffff16815260200190815260200160002060009054906101000a900460ff169050919050565b60006a636f6e736f6c652e6c6f679050600080835160208501845afa505050565b610652848484846040516024016105d09493929190610b5f565b6040516020818303038152906040527f91d1112e000000000000000000000000000000000000000000000000000000007bffffffffffffffffffffffffffffffffffffffffffffffffffffffff19166020820180517bffffffffffffffffffffffffffffffffffffffffffffffffffffffff8381831617835250505050610658565b50505050565b61066f81610667610595610672565b63ffffffff16565b50565b61067d819050919050565b610685610bb2565b565b600080fd5b600073ffffffffffffffffffffffffffffffffffffffff82169050919050565b60006106b78261068c565b9050919050565b6106c7816106ac565b81146106d257600080fd5b50565b6000813590506106e4816106be565b92915050565b600060208284031215610700576106ff610687565b5b600061070e848285016106d5565b91505092915050565b60008115159050919050565b61072c81610717565b82525050565b60006020820190506107476000830184610723565b92915050565b610756816106ac565b82525050565b6000602082019050610771600083018461074d565b92915050565b7f4e487b7100000000000000000000000000000000000000000000000000000000600052602160045260246000fd5b600581106107b7576107b6610777565b5b50565b60008190506107c8826107a6565b919050565b60006107d8826107ba565b9050919050565b6107e8816107cd565b82525050565b600060208201905061080360008301846107df565b92915050565b6005811061081657600080fd5b50565b60008135905061082881610809565b92915050565b6000806040838503121561084557610844610687565b5b6000610853858286016106d5565b925050602061086485828601610819565b9150509250929050565b600082825260208201905092915050565b7f4163746f7252656769737472793a2043616c6c6572206973206e6f742074686560008201527f206f776e65720000000000000000000000000000000000000000000000000000602082015250565b60006108db60268361086e565b91506108e68261087f565b604082019050919050565b6000602082019050818103600083015261090a816108ce565b9050919050565b7f4163746f7252656769737472793a2043616e6e6f74207265676973746572207460008201527f6865207a65726f20616464726573730000000000000000000000000000000000602082015250565b600061096d602f8361086e565b915061097882610911565b604082019050919050565b6000602082019050818103600083015261099c81610960565b9050919050565b7f4163746f7252656769737472793a204163746f7220616c72656164792072656760008201527f6973746572656400000000000000000000000000000000000000000000000000602082015250565b60006109ff60278361086e565b9150610a0a826109a3565b604082019050919050565b60006020820190508181036000830152610a2e816109f2565b9050919050565b7f4163746f7252656769737472793a2043616e6e6f742061737369676e20526f6c60008201527f65204e6f6e650000000000000000000000000000000000000000000000000000602082015250565b6000610a9160268361086e565b9150610a9c82610a35565b604082019050919050565b60006020820190508181036000830152610ac081610a84565b9050919050565b600081519050919050565b60005b83811015610af0578082015181840152602081019050610ad5565b60008484015250505050565b6000601f19601f8301169050919050565b6000610b1882610ac7565b610b22818561086e565b9350610b32818560208601610ad2565b610b3b81610afc565b840191505092915050565b6000819050919050565b610b5981610b46565b82525050565b60006080820190508181036000830152610b798187610b0d565b9050610b88602083018661074d565b8181036040830152610b9a8185610b0d565b9050610ba96060830184610b50565b95945050505050565b7f4e487b7100000000000000000000000000000000000000000000000000000000600052605160045260246000fdfea26469706673582212209db78ad0d66048d7ba93167dc93f4bcfa16abac2610e26d8742bd3b61aa2c4e764736f6c63430008140033",
  "linkReferences": {},
  "deployedLinkReferences": {}
}