{
  "_format": "hh-sol-artifact-1",
  "contractName": "ShipmentManager",
  "sourceName": "contracts/ShipmentManager.sol",
  "abi": [
    {
      "inputs": [
        {
          "internalType": "address",
          "name": "_registryAddress",
          "type": "address"
        }
      ],
      "stateMutability": "nonpayable",
      "type": "constructor"
    },
    {
      "inputs": [],
      "name": "AlreadyExists",
      "type": "error"
    },
    {
      "inputs": [],
      "name": "BoLNotAdded",
      "type": "error"
    },
    {
      "inputs": [],
      "name": "DemurrageAlreadyPaid",
      "type": "error"
    },
    {
      "inputs": [],
      "name": "DemurrageNotRecorded",
      "type": "error"
    },
    {
      "inputs": [],
      "name": "InvalidInput",
      "type": "error"
    },
    {
      "inputs": [],
      "name": "InvalidStatus",
      "type": "error"
    },
    {
      "inputs": [],
      "name": "NotFound",
      "type": "error"
    },
    {
      "inputs": [],
      "name": "Unauthorized",
      "type": "error"
    },
    {
      "anonymous": false,
      "inputs": [
        {
          "indexed": true,
          "internalType": "uint256",
          "name": "shipmentId",
          "type": "uint256"
        },
        {
          "indexed": false,
          "internalType": "address",
          "name": "markedBy",
          "type": "address"
        }
      ],
      "name": "DemurragePaid",
      "type": "event"
    },
    {
      "anonymous": false,
      "inputs": [
        {
          "indexed": true,
          "internalType": "uint256",
          "name": "shipmentId",
          "type": "uint256"
        },
        {
          "indexed": false,
          "internalType": "uint256",
          "name": "amount",
          "type": "uint256"
        },
        {
          "indexed": true,
          "internalType": "address",
          "name": "payee",
          "type": "address"
        },
        {
          "indexed": false,
          "internalType": "address",
          "name": "recordedBy",
          "type": "address"
        }
      ],
      "name": "DemurrageRecorded",
      "type": "event"
    },
    {
      "anonymous": false,
      "inputs": [
        {
          "indexed": true,
          "internalType": "uint256",
          "name": "shipmentId",
          "type": "uint256"
        },
        {
          "indexed": false,
          "internalType": "string",
          "name": "documentHash",
          "type": "string"
        },
        {
          "indexed": true,
          "internalType": "address",
          "name": "viewer",
          "type": "address"
        },
        {
          "indexed": false,
          "internalType": "address",
          "name": "grantedBy",
          "type": "address"
        }
      ],
      "name": "DocumentAccessGranted",
      "type": "event"
    },
    {
      "anonymous": false,
      "inputs": [
        {
          "indexed": true,
          "internalType": "uint256",
          "name": "shipmentId",
          "type": "uint256"
        },
        {
          "indexed": false,
          "internalType": "string",
          "name": "documentHash",
          "type": "string"
        },
        {
          "indexed": false,
          "internalType": "string",
          "name": "documentLocation",
          "type": "string"
        },
        {
          "indexed": false,
          "internalType": "address",
          "name": "addedBy",
          "type": "address"
        }
      ],
      "name": "DocumentAdded",
      "type": "event"
    },
    {
      "anonymous": false,
      "inputs": [
        {
          "indexed": true,
          "internalType": "uint256",
          "name": "shipmentId",
          "type": "uint256"
        },
        {
          "indexed": true,
          "internalType": "address",
          "name": "shipper",
          "type": "address"
        },
        {
          "indexed": true,
          "internalType": "address",
          "name": "carrier",
          "type": "address"
        },
        {
          "indexed": false,
          "internalType": "address",
          "name": "consignee",
          "type": "address"
        },
        {
          "indexed": false,
          "internalType": "enum ShipmentManager.ContainerType",
          "name": "containerType",
          "type": "uint8"
        },
        {
          "indexed": false,
          "internalType": "uint256",
          "name": "weightKg",
          "type": "uint256"
        }
      ],
      "name": "ShipmentCreated",
      "type": "event"
    },
    {
      "anonymous": false,
      "inputs": [
        {
          "indexed": true,
          "internalType": "uint256",
          "name": "shipmentId",
          "type": "uint256"
        },
        {
          "indexed": false,
          "internalType": "enum ShipmentManager.ContainerType",
          "name": "containerType",
          "type": "uint8"
        },
        {
          "indexed": false,
          "internalType": "uint256",
          "name": "weightKg",
          "type": "uint256"
        }
      ],
      "name": "ShipmentDetailsAdded",
      "type": "event"
    },
    {
      "anonymous": false,
      "inputs": [
        {
          "indexed": true,
          "internalType": "uint256",
          "name": "shipmentId",
          "type": "uint256"
        },
        {
          "indexed": false,
          "internalType": "enum ShipmentManager.Status",
          "name": "newStatus",
          "type": "uint8"
        },
        {
          "indexed": false,
          "internalType": "address",
          "name": "updatedBy",
          "type": "address"
        }
      ],
      "name": "ShipmentStatusUpdated",
      "type": "event"
    },
    {
      "inputs": [],
      "name": "actorRegistry",
      "outputs": [
        {
          "internalType": "contract ActorRegistry",
          "name": "",
          "type": "address"
        }
      ],
      "stateMutability": "view",
      "type": "function"
    },
    {
      "inputs": [
        {
          "internalType": "uint256",
          "name": "_shipmentId",
          "type": "uint256"
        },
        {
          "internalType": "string",
          "name": "_documentHash",
          "type": "string"
        },
        {
          "internalType": "string",
          "name": "_documentLocation",
          "type": "string"
        }
      ],
      "name": "addBillOfLading",
      "outputs": [],
      "stateMutability": "nonpayable",
      "type": "function"
    },
    {
      "inputs": [
        {
          "internalType": "uint256",
          "name": "_shipmentId",
          "type": "uint256"
        },
        {
          "internalType": "enum ShipmentManager.ContainerType",
          "name": "_containerType",
          "type": "uint8"
        },
        {
          "internalType": "uint256",
          "name": "_weightKg",
          "type": "uint256"
        }
      ],
      "name": "addShipmentDetails",
      "outputs": [],
      "stateMutability": "nonpayable",
      "type": "function"
    },
    {
      "inputs": [
        {
          "internalType": "uint256",
          "name": "",
          "type": "uint256"
        }
      ],
      "name": "bolDocumentHashes",
      "outputs": [
        {
          "internalType": "string",
          "name": "",
          "type": "string"
        }
      ],
      "stateMutability": "view",
      "type": "function"
    },
    {
      "inputs": [
        {
          "internalType": "uint256",
          "name": "",
          "type": "uint256"
        }
      ],
      "name": "bolDocumentLocations",
      "outputs": [
        {
          "internalType": "string",
          "name": "",
          "type": "string"
        }
      ],
      "stateMutability": "view",
      "type": "function"
    },
    {
      "inputs": [
        {
          "internalType": "address",
          "name": "_carrier",
          "type": "address"
        },
        {
          "internalType": "address",
          "name": "_consignee",
          "type": "address"
        }
      ],
      "name": "createShipment",
      "outputs": [],
      "stateMutability": "nonpayable",
      "type": "function"
    },
    {
      "inputs": [
        {
          "internalType": "uint256",
          "name": "_shipmentId",
          "type": "uint256"
        }
      ],
      "name": "getDemurrageDetails",
      "outputs": [
        {
          "components": [
            {
              "internalType": "uint256",
              "name": "amount",
              "type": "uint256"
            },
            {
              "internalType": "address",
              "name": "payee",
              "type": "address"
            },
            {
              "internalType": "bool",
              "name": "isPaid",
              "type": "bool"
            },
            {
              "internalType": "address",
              "name": "recordedBy",
              "type": "address"
            }
          ],
          "internalType": "struct ShipmentManager.DemurrageInfo",
          "name": "",
          "type": "tuple"
        }
      ],
      "stateMutability": "view",
      "type": "function"
    },
    {
      "inputs": [
        {
          "internalType": "uint256",
          "name": "_shipmentId",
          "type": "uint256"
        }
      ],
      "name": "getDocumentLocation",
      "outputs": [
        {
          "internalType": "string",
          "name": "",
          "type": "string"
        }
      ],
      "stateMutability": "view",
      "type": "function"
    },
    {
      "inputs": [
        {
          "internalType": "uint256",
          "name": "_shipmentId",
          "type": "uint256"
        }
      ],
      "name": "getShipmentCoreDetails",
      "outputs": [
        {
          "components": [
            {
              "internalType": "uint256",
              "name": "shipmentId",
              "type": "uint256"
            },
            {
              "internalType": "address",
              "name": "shipper",
              "type": "address"
            },
            {
              "internalType": "address",
              "name": "carrier",
              "type": "address"
            },
            {
              "internalType": "address",
              "name": "consignee",
              "type": "address"
            },
            {
              "internalType": "enum ShipmentManager.Status",
              "name": "status",
              "type": "uint8"
            },
            {
              "internalType": "enum ShipmentManager.ContainerType",
              "name": "containerType",
              "type": "uint8"
            },
            {
              "internalType": "uint256",
              "name": "weightKg",
              "type": "uint256"
            },
            {
              "internalType": "bool",
              "name": "detailsAdded",
              "type": "bool"
            },
            {
              "internalType": "uint256",
              "name": "creationTimestamp",
              "type": "uint256"
            },
            {
              "internalType": "uint256",
              "name": "pickupTimestamp",
              "type": "uint256"
            },
            {
              "internalType": "uint256",
              "name": "deliveryTimestamp",
              "type": "uint256"
            },
            {
              "internalType": "bool",
              "name": "bolAdded",
              "type": "bool"
            }
          ],
          "internalType": "struct ShipmentManager.ShipmentCore",
          "name": "",
          "type": "tuple"
        }
      ],
      "stateMutability": "view",
      "type": "function"
    },
    {
      "inputs": [
        {
          "internalType": "uint256",
          "name": "_shipmentId",
          "type": "uint256"
        },
        {
          "internalType": "address",
          "name": "_viewer",
          "type": "address"
        }
      ],
      "name": "grantDocumentAccess",
      "outputs": [],
      "stateMutability": "nonpayable",
      "type": "function"
    },
    {
      "inputs": [
        {
          "internalType": "uint256",
          "name": "_shipmentId",
          "type": "uint256"
        }
      ],
      "name": "markDemurragePaid",
      "outputs": [],
      "stateMutability": "nonpayable",
      "type": "function"
    },
    {
      "inputs": [],
      "name": "nextShipmentId",
      "outputs": [
        {
          "internalType": "uint256",
          "name": "",
          "type": "uint256"
        }
      ],
      "stateMutability": "view",
      "type": "function"
    },
    {
      "inputs": [
        {
          "internalType": "uint256",
          "name": "_shipmentId",
          "type": "uint256"
        },
        {
          "internalType": "uint256",
          "name": "_amount",
          "type": "uint256"
        },
        {
          "internalType": "address",
          "name": "_payee",
          "type": "address"
        }
      ],
      "name": "recordDemurrage",
      "outputs": [],
      "stateMutability": "nonpayable",
      "type": "function"
    },
    {
      "inputs": [
        {
          "internalType": "uint256",
          "name": "",
          "type": "uint256"
        },
        {
          "internalType": "address",
          "name": "",
          "type": "address"
        }
      ],
      "name": "shipmentBolAccess",
      "outputs": [
        {
          "internalType": "bool",
          "name": "",
          "type": "bool"
        }
      ],
      "stateMutability": "view",
      "type": "function"
    },
    {
      "inputs": [
        {
          "internalType": "uint256",
          "name": "",
          "type": "uint256"
        }
      ],
      "name": "shipments",
      "outputs": [
        {
          "internalType": "uint256",
          "name": "shipmentId",
          "type": "uint256"
        },
        {
          "internalType": "address",
          "name": "shipper",
          "type": "address"
        },
        {
          "internalType": "address",
          "name": "carrier",
          "type": "address"
        },
        {
          "internalType": "address",
          "name": "consignee",
          "type": "address"
        },
        {
          "internalType": "enum ShipmentManager.Status",
          "name": "status",
          "type": "uint8"
        },
        {
          "internalType": "enum ShipmentManager.ContainerType",
          "name": "containerType",
          "type": "uint8"
        },
        {
          "internalType": "uint256",
          "name": "weightKg",
          "type": "uint256"
        },
        {
          "internalType": "bool",
          "name": "detailsAdded",
          "type": "bool"
        },
        {
          "internalType": "uint256",
          "name": "creationTimestamp",
          "type": "uint256"
        },
        {
          "internalType": "uint256",
          "name": "pickupTimestamp",
          "type": "uint256"
        },
        {
          "internalType": "uint256",
          "name": "deliveryTimestamp",
          "type": "uint256"
        },
        {
          "internalType": "bool",
          "name": "bolAdded",
          "type": "bool"
        }
      ],
      "stateMutability": "view",
      "type": "function"
    },
    {
      "inputs": [
        {
          "internalType": "uint256",
          "name": "_shipmentId",
          "type": "uint256"
        },
        {
          "internalType": "enum ShipmentManager.Status",
          "name": "_newStatus",
          "type": "uint8"
        }
      ],
      "name": "updateShipmentStatus",
      "outputs": [],
      "stateMutability": "nonpayable",
      "type": "function"
    }
  ],
  "bytecode": "0x608060405260016006553480156200001657600080fd5b50604051620037333803806200373383398181016040528101906200003c91906200015f565b600073ffffffffffffffffffffffffffffffffffffffff168173ffffffffffffffffffffffffffffffffffffffff1603620000ae576040517f08c379a0000000000000000000000000000000000000000000000000000000008152600401620000a59062000218565b60405180910390fd5b806000806101000a81548173ffffffffffffffffffffffffffffffffffffffff021916908373ffffffffffffffffffffffffffffffffffffffff160217905550506200023a565b600080fd5b600073ffffffffffffffffffffffffffffffffffffffff82169050919050565b60006200012782620000fa565b9050919050565b62000139816200011a565b81146200014557600080fd5b50565b60008151905062000159816200012e565b92915050565b600060208284031215620001785762000177620000f5565b5b6000620001888482850162000148565b91505092915050565b600082825260208201905092915050565b7f536869706d656e744d616e616765723a20496e76616c6964207265676973747260008201527f7920616464726573730000000000000000000000000000000000000000000000602082015250565b60006200020060298362000191565b91506200020d82620001a2565b604082019050919050565b600060208201905081810360008301526200023381620001f1565b9050919050565b6134e9806200024a6000396000f3fe608060405234801561001057600080fd5b50600436106101005760003560e01c80637f78f16f11610097578063e7d5306211610066578063e7d53062146102da578063eae7b935146102f6578063fdc4693214610314578063fe30b4e81461033057610100565b80637f78f16f14610254578063ad0f1dd714610284578063b9a3a68c146102a0578063d1073858146102be57610100565b80634db92fff116100d35780634db92fff146101bc5780634ed5709f146101d857806367d68411146102085780637defa9201461023857610100565b80630d677b02146101055780632ac08a9314610121578063473921d61461015c578063499f9a8b1461018c575b600080fd5b61011f600480360381019061011a919061271b565b610360565b005b61013b6004803603810190610136919061275b565b610702565b6040516101539c9b9a99989796959493929190612880565b60405180910390f35b6101766004803603810190610171919061275b565b6107f6565b60405161018391906129ca565b60405180910390f35b6101a660048036038101906101a1919061271b565b610896565b6040516101b391906129ec565b60405180910390f35b6101d660048036038101906101d19190612a07565b6108c5565b005b6101f260048036038101906101ed919061275b565b610ce9565b6040516101ff91906129ca565b60405180910390f35b610222600480360381019061021d919061275b565b610f18565b60405161022f9190612adc565b60405180910390f35b610252600480360381019061024d9190612b1c565b611016565b005b61026e6004803603810190610269919061275b565b6114d2565b60405161027b9190612c70565b60405180910390f35b61029e60048036038101906102999190612c8c565b61177c565b005b6102a86119b2565b6040516102b59190612ccc565b60405180910390f35b6102d860048036038101906102d39190612e1c565b6119b8565b005b6102f460048036038101906102ef919061275b565b611df4565b005b6102fe6120ba565b60405161030b9190612f06565b60405180910390f35b61032e60048036038101906103299190612f46565b6120de565b005b61034a6004803603810190610345919061275b565b612352565b60405161035791906129ca565b60405180910390f35b6000600160008481526020019081526020016000209050600073ffffffffffffffffffffffffffffffffffffffff168160010160009054906101000a900473ffffffffffffffffffffffffffffffffffffffff1673ffffffffffffffffffffffffffffffffffffffff1603610401576040517fc5723b5100000000000000000000000000000000000000000000000000000000815260040160405180910390fd5b8060010160009054906101000a900473ffffffffffffffffffffffffffffffffffffffff1673ffffffffffffffffffffffffffffffffffffffff163373ffffffffffffffffffffffffffffffffffffffff161461048a576040517f82b4290000000000000000000000000000000000000000000000000000000000815260040160405180910390fd5b8060090160009054906101000a900460ff166104d2576040517f8bcb4ec400000000000000000000000000000000000000000000000000000000815260040160405180910390fd5b600073ffffffffffffffffffffffffffffffffffffffff168273ffffffffffffffffffffffffffffffffffffffff1603610538576040517fb4fa3fb300000000000000000000000000000000000000000000000000000000815260040160405180910390fd5b6004600084815260200190815260200160002060008373ffffffffffffffffffffffffffffffffffffffff1673ffffffffffffffffffffffffffffffffffffffff16815260200190815260200160002060009054906101000a900460ff16156105a157506106fe565b60016004600085815260200190815260200160002060008473ffffffffffffffffffffffffffffffffffffffff1673ffffffffffffffffffffffffffffffffffffffff16815260200190815260200160002060006101000a81548160ff021916908315150217905550600060026000858152602001908152602001600020805461062a90612fc8565b80601f016020809104026020016040519081016040528092919081815260200182805461065690612fc8565b80156106a35780601f10610678576101008083540402835291602001916106a3565b820191906000526020600020905b81548152906001019060200180831161068657829003601f168201915b505050505090508273ffffffffffffffffffffffffffffffffffffffff16847fe544b32e49d4114d3c27d547ca738bdda3bcf967573ea5a19ecc5ea21afee2e583336040516106f3929190612ff9565b60405180910390a350505b5050565b60016020528060005260406000206000915090508060000154908060010160009054906101000a900473ffffffffffffffffffffffffffffffffffffffff16908060020160009054906101000a900473ffffffffffffffffffffffffffffffffffffffff16908060030160009054906101000a900473ffffffffffffffffffffffffffffffffffffffff16908060030160149054906101000a900460ff16908060030160159054906101000a900460ff16908060040154908060050160009054906101000a900460ff16908060060154908060070154908060080154908060090160009054906101000a900460ff1690508c565b6003602052806000526040600020600091509050805461081590612fc8565b80601f016020809104026020016040519081016040528092919081815260200182805461084190612fc8565b801561088e5780601f106108635761010080835404028352916020019161088e565b820191906000526020600020905b81548152906001019060200180831161087157829003601f168201915b505050505081565b60046020528160005260406000206020528060005260406000206000915091509054906101000a900460ff1681565b6000600160008581526020019081526020016000209050600073ffffffffffffffffffffffffffffffffffffffff168160010160009054906101000a900473ffffffffffffffffffffffffffffffffffffffff1673ffffffffffffffffffffffffffffffffffffffff1603610966576040517fc5723b5100000000000000000000000000000000000000000000000000000000815260040160405180910390fd5b600480811115610979576109786127a6565b5b60008054906101000a900473ffffffffffffffffffffffffffffffffffffffff1673ffffffffffffffffffffffffffffffffffffffff1663e3a00ef1336040518263ffffffff1660e01b81526004016109d29190613029565b602060405180830381865afa1580156109ef573d6000803e3d6000fd5b505050506040513d601f19601f82011682018060405250810190610a139190613069565b6004811115610a2557610a246127a6565b5b14610a5c576040517f82b4290000000000000000000000000000000000000000000000000000000000815260040160405180910390fd5b60016003811115610a7057610a6f6127a6565b5b8160030160149054906101000a900460ff166003811115610a9457610a936127a6565b5b1015610acc576040517ff525e32000000000000000000000000000000000000000000000000000000000815260040160405180910390fd5b600073ffffffffffffffffffffffffffffffffffffffff168273ffffffffffffffffffffffffffffffffffffffff1603610b32576040517fb4fa3fb300000000000000000000000000000000000000000000000000000000815260040160405180910390fd5b600073ffffffffffffffffffffffffffffffffffffffff166005600086815260200190815260200160002060020160009054906101000a900473ffffffffffffffffffffffffffffffffffffffff1673ffffffffffffffffffffffffffffffffffffffff1614610bce576040517f23369fa600000000000000000000000000000000000000000000000000000000815260040160405180910390fd5b6000600560008681526020019081526020016000209050838160000181905550828160010160006101000a81548173ffffffffffffffffffffffffffffffffffffffff021916908373ffffffffffffffffffffffffffffffffffffffff16021790555060008160010160146101000a81548160ff021916908315150217905550338160020160006101000a81548173ffffffffffffffffffffffffffffffffffffffff021916908373ffffffffffffffffffffffffffffffffffffffff1602179055508273ffffffffffffffffffffffffffffffffffffffff16857fa257a7c1e141867c08bf132fd6634d3c4855aa764203a2dd429353515f8b1ebf8633604051610cda929190613096565b60405180910390a35050505050565b6060600073ffffffffffffffffffffffffffffffffffffffff166001600084815260200190815260200160002060010160009054906101000a900473ffffffffffffffffffffffffffffffffffffffff1673ffffffffffffffffffffffffffffffffffffffff1603610d87576040517fc5723b5100000000000000000000000000000000000000000000000000000000815260040160405180910390fd5b6001600083815260200190815260200160002060090160009054906101000a900460ff16610de1576040517f8bcb4ec400000000000000000000000000000000000000000000000000000000815260040160405180910390fd5b6004600083815260200190815260200160002060003373ffffffffffffffffffffffffffffffffffffffff1673ffffffffffffffffffffffffffffffffffffffff16815260200190815260200160002060009054906101000a900460ff16610e75576040517f82b4290000000000000000000000000000000000000000000000000000000000815260040160405180910390fd5b600360008381526020019081526020016000208054610e9390612fc8565b80601f0160208091040260200160405190810160405280929190818152602001828054610ebf90612fc8565b8015610f0c5780601f10610ee157610100808354040283529160200191610f0c565b820191906000526020600020905b815481529060010190602001808311610eef57829003601f168201915b50505050509050919050565b610f20612552565b60056000838152602001908152602001600020604051806080016040529081600082015481526020016001820160009054906101000a900473ffffffffffffffffffffffffffffffffffffffff1673ffffffffffffffffffffffffffffffffffffffff1673ffffffffffffffffffffffffffffffffffffffff1681526020016001820160149054906101000a900460ff161515151581526020016002820160009054906101000a900473ffffffffffffffffffffffffffffffffffffffff1673ffffffffffffffffffffffffffffffffffffffff1673ffffffffffffffffffffffffffffffffffffffff16815250509050919050565b6000600160008481526020019081526020016000209050600073ffffffffffffffffffffffffffffffffffffffff168160010160009054906101000a900473ffffffffffffffffffffffffffffffffffffffff1673ffffffffffffffffffffffffffffffffffffffff16036110b7576040517fc5723b5100000000000000000000000000000000000000000000000000000000815260040160405180910390fd5b60008160030160149054906101000a900460ff1690506000600160038111156110e3576110e26127a6565b5b8460038111156110f6576110f56127a6565b5b036111f3576000600381111561110f5761110e6127a6565b5b826003811115611122576111216127a6565b5b14611159576040517ff525e32000000000000000000000000000000000000000000000000000000000815260040160405180910390fd5b8260020160009054906101000a900473ffffffffffffffffffffffffffffffffffffffff1690508073ffffffffffffffffffffffffffffffffffffffff163373ffffffffffffffffffffffffffffffffffffffff16146111e5576040517f82b4290000000000000000000000000000000000000000000000000000000000815260040160405180910390fd5b428360070181905550611465565b60026003811115611207576112066127a6565b5b84600381111561121a576112196127a6565b5b0361130e5760016003811115611233576112326127a6565b5b826003811115611246576112456127a6565b5b1461127d576040517ff525e32000000000000000000000000000000000000000000000000000000000815260040160405180910390fd5b8260020160009054906101000a900473ffffffffffffffffffffffffffffffffffffffff1690508073ffffffffffffffffffffffffffffffffffffffff163373ffffffffffffffffffffffffffffffffffffffff1614611309576040517f82b4290000000000000000000000000000000000000000000000000000000000815260040160405180910390fd5b611464565b600380811115611321576113206127a6565b5b846003811115611334576113336127a6565b5b03611431576002600381111561134d5761134c6127a6565b5b8260038111156113605761135f6127a6565b5b14611397576040517ff525e32000000000000000000000000000000000000000000000000000000000815260040160405180910390fd5b8260030160009054906101000a900473ffffffffffffffffffffffffffffffffffffffff1690508073ffffffffffffffffffffffffffffffffffffffff163373ffffffffffffffffffffffffffffffffffffffff1614611423576040517f82b4290000000000000000000000000000000000000000000000000000000000815260040160405180910390fd5b428360080181905550611463565b6040517ff525e32000000000000000000000000000000000000000000000000000000000815260040160405180910390fd5b5b5b838360030160146101000a81548160ff0219169083600381111561148c5761148b6127a6565b5b0217905550847f1a1651159a8408418ed642e1ad03e9d2b75b9a6e70adc81a769dc0016105ac2885336040516114c39291906130bf565b60405180910390a25050505050565b6114da6125a8565b600073ffffffffffffffffffffffffffffffffffffffff166001600084815260200190815260200160002060010160009054906101000a900473ffffffffffffffffffffffffffffffffffffffff1673ffffffffffffffffffffffffffffffffffffffff1603611576576040517fc5723b5100000000000000000000000000000000000000000000000000000000815260040160405180910390fd5b6001600083815260200190815260200160002060405180610180016040529081600082015481526020016001820160009054906101000a900473ffffffffffffffffffffffffffffffffffffffff1673ffffffffffffffffffffffffffffffffffffffff1673ffffffffffffffffffffffffffffffffffffffff1681526020016002820160009054906101000a900473ffffffffffffffffffffffffffffffffffffffff1673ffffffffffffffffffffffffffffffffffffffff1673ffffffffffffffffffffffffffffffffffffffff1681526020016003820160009054906101000a900473ffffffffffffffffffffffffffffffffffffffff1673ffffffffffffffffffffffffffffffffffffffff1673ffffffffffffffffffffffffffffffffffffffff1681526020016003820160149054906101000a900460ff1660038111156116c6576116c56127a6565b5b60038111156116d8576116d76127a6565b5b81526020016003820160159054906101000a900460ff166001811115611701576117006127a6565b5b6001811115611713576117126127a6565b5b8152602001600482015481526020016005820160009054906101000a900460ff161515151581526020016006820154815260200160078201548152602001600882015481526020016009820160009054906101000a900460ff1615151515815250509050919050565b600033905060016004811115611795576117946127a6565b5b60008054906101000a900473ffffffffffffffffffffffffffffffffffffffff1673ffffffffffffffffffffffffffffffffffffffff1663e3a00ef1836040518263ffffffff1660e01b81526004016117ee9190613029565b602060405180830381865afa15801561180b573d6000803e3d6000fd5b505050506040513d601f19601f8201168201806040525081019061182f9190613069565b6004811115611841576118406127a6565b5b14611878576040517f82b4290000000000000000000000000000000000000000000000000000000000815260040160405180910390fd5b600073ffffffffffffffffffffffffffffffffffffffff168373ffffffffffffffffffffffffffffffffffffffff1614806118df5750600073ffffffffffffffffffffffffffffffffffffffff168273ffffffffffffffffffffffffffffffffffffffff16145b15611916576040517fb4fa3fb300000000000000000000000000000000000000000000000000000000815260040160405180910390fd5b600060065490506006600081548092919061193090613117565b9190505550611941818386866123f2565b8373ffffffffffffffffffffffffffffffffffffffff168273ffffffffffffffffffffffffffffffffffffffff16827f403eb88fc8dbc0105bc14e72a79cf63624706af1432588fa55ea8373ae73884a866000806040516119a49392919061319a565b60405180910390a450505050565b60065481565b6000600160008581526020019081526020016000209050600073ffffffffffffffffffffffffffffffffffffffff168160010160009054906101000a900473ffffffffffffffffffffffffffffffffffffffff1673ffffffffffffffffffffffffffffffffffffffff1603611a59576040517fc5723b5100000000000000000000000000000000000000000000000000000000815260040160405180910390fd5b8060010160009054906101000a900473ffffffffffffffffffffffffffffffffffffffff1673ffffffffffffffffffffffffffffffffffffffff163373ffffffffffffffffffffffffffffffffffffffff1614611ae2576040517f82b4290000000000000000000000000000000000000000000000000000000000815260040160405180910390fd5b60006003811115611af657611af56127a6565b5b8160030160149054906101000a900460ff166003811115611b1a57611b196127a6565b5b14611b51576040517ff525e32000000000000000000000000000000000000000000000000000000000815260040160405180910390fd5b8060090160009054906101000a900460ff1615611b9a576040517f23369fa600000000000000000000000000000000000000000000000000000000815260040160405180910390fd5b82600260008681526020019081526020016000209081611bba9190613373565b5081600360008681526020019081526020016000209081611bdb9190613373565b5060018160090160006101000a81548160ff02191690831515021790555060008160010160009054906101000a900473ffffffffffffffffffffffffffffffffffffffff16905060008260020160009054906101000a900473ffffffffffffffffffffffffffffffffffffffff16905060008360030160009054906101000a900473ffffffffffffffffffffffffffffffffffffffff16905060016004600089815260200190815260200160002060008573ffffffffffffffffffffffffffffffffffffffff1673ffffffffffffffffffffffffffffffffffffffff16815260200190815260200160002060006101000a81548160ff02191690831515021790555060016004600089815260200190815260200160002060008473ffffffffffffffffffffffffffffffffffffffff1673ffffffffffffffffffffffffffffffffffffffff16815260200190815260200160002060006101000a81548160ff02191690831515021790555060016004600089815260200190815260200160002060008373ffffffffffffffffffffffffffffffffffffffff1673ffffffffffffffffffffffffffffffffffffffff16815260200190815260200160002060006101000a81548160ff021916908315150217905550867fd73deb6dacfedc577a99fc8333d7e97a792d6c4f2c9cbe9131c33bc9fce0f55c878733604051611de393929190613445565b60405180910390a250505050505050565b600073ffffffffffffffffffffffffffffffffffffffff166001600083815260200190815260200160002060010160009054906101000a900473ffffffffffffffffffffffffffffffffffffffff1673ffffffffffffffffffffffffffffffffffffffff1603611e90576040517fc5723b5100000000000000000000000000000000000000000000000000000000815260040160405180910390fd5b6000600560008381526020019081526020016000209050600073ffffffffffffffffffffffffffffffffffffffff168160020160009054906101000a900473ffffffffffffffffffffffffffffffffffffffff1673ffffffffffffffffffffffffffffffffffffffff1603611f31576040517fa77b6d0f00000000000000000000000000000000000000000000000000000000815260040160405180910390fd5b8060010160149054906101000a900460ff1615611f7a576040517f510277a500000000000000000000000000000000000000000000000000000000815260040160405180910390fd5b8060010160009054906101000a900473ffffffffffffffffffffffffffffffffffffffff1673ffffffffffffffffffffffffffffffffffffffff163373ffffffffffffffffffffffffffffffffffffffff161415801561202a57508060020160009054906101000a900473ffffffffffffffffffffffffffffffffffffffff1673ffffffffffffffffffffffffffffffffffffffff163373ffffffffffffffffffffffffffffffffffffffff1614155b15612061576040517f82b4290000000000000000000000000000000000000000000000000000000000815260040160405180910390fd5b60018160010160146101000a81548160ff021916908315150217905550817f9d6bc425b0d2f5f98bed50b3990f017613311c422ba82a2875daa81924d29d69336040516120ae9190613029565b60405180910390a25050565b60008054906101000a900473ffffffffffffffffffffffffffffffffffffffff1681565b6000600160008581526020019081526020016000209050600073ffffffffffffffffffffffffffffffffffffffff168160010160009054906101000a900473ffffffffffffffffffffffffffffffffffffffff1673ffffffffffffffffffffffffffffffffffffffff160361217f576040517fc5723b5100000000000000000000000000000000000000000000000000000000815260040160405180910390fd5b8060010160009054906101000a900473ffffffffffffffffffffffffffffffffffffffff1673ffffffffffffffffffffffffffffffffffffffff163373ffffffffffffffffffffffffffffffffffffffff1614612208576040517f82b4290000000000000000000000000000000000000000000000000000000000815260040160405180910390fd5b6000600381111561221c5761221b6127a6565b5b8160030160149054906101000a900460ff1660038111156122405761223f6127a6565b5b14612277576040517ff525e32000000000000000000000000000000000000000000000000000000000815260040160405180910390fd5b8060050160009054906101000a900460ff16156122c0576040517f23369fa600000000000000000000000000000000000000000000000000000000815260040160405180910390fd5b828160030160156101000a81548160ff021916908360018111156122e7576122e66127a6565b5b021790555081816004018190555060018160050160006101000a81548160ff021916908315150217905550837ff21a0cc9d4960f88596de726605876c442317bfedff077687c546fef13b583f6848460405161234492919061348a565b60405180910390a250505050565b6002602052806000526040600020600091509050805461237190612fc8565b80601f016020809104026020016040519081016040528092919081815260200182805461239d90612fc8565b80156123ea5780601f106123bf576101008083540402835291602001916123ea565b820191906000526020600020905b8154815290600101906020018083116123cd57829003601f168201915b505050505081565b6000600160008681526020019081526020016000209050848160000181905550838160010160006101000a81548173ffffffffffffffffffffffffffffffffffffffff021916908373ffffffffffffffffffffffffffffffffffffffff160217905550828160020160006101000a81548173ffffffffffffffffffffffffffffffffffffffff021916908373ffffffffffffffffffffffffffffffffffffffff160217905550818160030160006101000a81548173ffffffffffffffffffffffffffffffffffffffff021916908373ffffffffffffffffffffffffffffffffffffffff16021790555060008160030160146101000a81548160ff02191690836003811115612503576125026127a6565b5b021790555042816006018190555060008160050160006101000a81548160ff02191690831515021790555060008160090160006101000a81548160ff0219169083151502179055505050505050565b604051806080016040528060008152602001600073ffffffffffffffffffffffffffffffffffffffff168152602001600015158152602001600073ffffffffffffffffffffffffffffffffffffffff1681525090565b60405180610180016040528060008152602001600073ffffffffffffffffffffffffffffffffffffffff168152602001600073ffffffffffffffffffffffffffffffffffffffff168152602001600073ffffffffffffffffffffffffffffffffffffffff16815260200160006003811115612626576126256127a6565b5b81526020016000600181111561263f5761263e6127a6565b5b8152602001600081526020016000151581526020016000815260200160008152602001600081526020016000151581525090565b6000604051905090565b600080fd5b600080fd5b6000819050919050565b61269a81612687565b81146126a557600080fd5b50565b6000813590506126b781612691565b92915050565b600073ffffffffffffffffffffffffffffffffffffffff82169050919050565b60006126e8826126bd565b9050919050565b6126f8816126dd565b811461270357600080fd5b50565b600081359050612715816126ef565b92915050565b600080604083850312156127325761273161267d565b5b6000612740858286016126a8565b925050602061275185828601612706565b9150509250929050565b6000602082840312156127715761277061267d565b5b600061277f848285016126a8565b91505092915050565b61279181612687565b82525050565b6127a0816126dd565b82525050565b7f4e487b7100000000000000000000000000000000000000000000000000000000600052602160045260246000fd5b600481106127e6576127e56127a6565b5b50565b60008190506127f7826127d5565b919050565b6000612807826127e9565b9050919050565b612817816127fc565b82525050565b6002811061282e5761282d6127a6565b5b50565b600081905061283f8261281d565b919050565b600061284f82612831565b9050919050565b61285f81612844565b82525050565b60008115159050919050565b61287a81612865565b82525050565b600061018082019050612896600083018f612788565b6128a3602083018e612797565b6128b0604083018d612797565b6128bd606083018c612797565b6128ca608083018b61280e565b6128d760a083018a612856565b6128e460c0830189612788565b6128f160e0830188612871565b6128ff610100830187612788565b61290d610120830186612788565b61291b610140830185612788565b612929610160830184612871565b9d9c50505050505050505050505050565b600081519050919050565b600082825260208201905092915050565b60005b83811015612974578082015181840152602081019050612959565b60008484015250505050565b6000601f19601f8301169050919050565b600061299c8261293a565b6129a68185612945565b93506129b6818560208601612956565b6129bf81612980565b840191505092915050565b600060208201905081810360008301526129e48184612991565b905092915050565b6000602082019050612a016000830184612871565b92915050565b600080600060608486031215612a2057612a1f61267d565b5b6000612a2e868287016126a8565b9350506020612a3f868287016126a8565b9250506040612a5086828701612706565b9150509250925092565b612a6381612687565b82525050565b612a72816126dd565b82525050565b612a8181612865565b82525050565b608082016000820151612a9d6000850182612a5a565b506020820151612ab06020850182612a69565b506040820151612ac36040850182612a78565b506060820151612ad66060850182612a69565b50505050565b6000608082019050612af16000830184612a87565b92915050565b60048110612b0457600080fd5b50565b600081359050612b1681612af7565b92915050565b60008060408385031215612b3357612b3261267d565b5b6000612b41858286016126a8565b9250506020612b5285828601612b07565b9150509250929050565b612b65816127fc565b82525050565b612b7481612844565b82525050565b61018082016000820151612b916000850182612a5a565b506020820151612ba46020850182612a69565b506040820151612bb76040850182612a69565b506060820151612bca6060850182612a69565b506080820151612bdd6080850182612b5c565b5060a0820151612bf060a0850182612b6b565b5060c0820151612c0360c0850182612a5a565b5060e0820151612c1660e0850182612a78565b50610100820151612c2b610100850182612a5a565b50610120820151612c40610120850182612a5a565b50610140820151612c55610140850182612a5a565b50610160820151612c6a610160850182612a78565b50505050565b600061018082019050612c866000830184612b7a565b92915050565b60008060408385031215612ca357612ca261267d565b5b6000612cb185828601612706565b9250506020612cc285828601612706565b9150509250929050565b6000602082019050612ce16000830184612788565b92915050565b600080fd5b600080fd5b7f4e487b7100000000000000000000000000000000000000000000000000000000600052604160045260246000fd5b612d2982612980565b810181811067ffffffffffffffff82111715612d4857612d47612cf1565b5b80604052505050565b6000612d5b612673565b9050612d678282612d20565b919050565b600067ffffffffffffffff821115612d8757612d86612cf1565b5b612d9082612980565b9050602081019050919050565b82818337600083830152505050565b6000612dbf612dba84612d6c565b612d51565b905082815260208101848484011115612ddb57612dda612cec565b5b612de6848285612d9d565b509392505050565b600082601f830112612e0357612e02612ce7565b5b8135612e13848260208601612dac565b91505092915050565b600080600060608486031215612e3557612e3461267d565b5b6000612e43868287016126a8565b935050602084013567ffffffffffffffff811115612e6457612e63612682565b5b612e7086828701612dee565b925050604084013567ffffffffffffffff811115612e9157612e90612682565b5b612e9d86828701612dee565b9150509250925092565b6000819050919050565b6000612ecc612ec7612ec2846126bd565b612ea7565b6126bd565b9050919050565b6000612ede82612eb1565b9050919050565b6000612ef082612ed3565b9050919050565b612f0081612ee5565b82525050565b6000602082019050612f1b6000830184612ef7565b92915050565b60028110612f2e57600080fd5b50565b600081359050612f4081612f21565b92915050565b600080600060608486031215612f5f57612f5e61267d565b5b6000612f6d868287016126a8565b9350506020612f7e86828701612f31565b9250506040612f8f868287016126a8565b9150509250925092565b7f4e487b7100000000000000000000000000000000000000000000000000000000600052602260045260246000fd5b60006002820490506001821680612fe057607f821691505b602082108103612ff357612ff2612f99565b5b50919050565b600060408201905081810360008301526130138185612991565b90506130226020830184612797565b9392505050565b600060208201905061303e6000830184612797565b92915050565b6005811061305157600080fd5b50565b60008151905061306381613044565b92915050565b60006020828403121561307f5761307e61267d565b5b600061308d84828501613054565b91505092915050565b60006040820190506130ab6000830185612788565b6130b86020830184612797565b9392505050565b60006040820190506130d4600083018561280e565b6130e16020830184612797565b9392505050565b7f4e487b7100000000000000000000000000000000000000000000000000000000600052601160045260246000fd5b600061312282612687565b91507fffffffffffffffffffffffffffffffffffffffffffffffffffffffffffffffff8203613154576131536130e8565b5b600182019050919050565b6000819050919050565b600061318461317f61317a8461315f565b612ea7565b612687565b9050919050565b61319481613169565b82525050565b60006060820190506131af6000830186612797565b6131bc6020830185612856565b6131c9604083018461318b565b949350505050565b60008190508160005260206000209050919050565b60006020601f8301049050919050565b600082821b905092915050565b6000600883026132337fffffffffffffffffffffffffffffffffffffffffffffffffffffffffffffffff826131f6565b61323d86836131f6565b95508019841693508086168417925050509392505050565b600061327061326b61326684612687565b612ea7565b612687565b9050919050565b6000819050919050565b61328a83613255565b61329e61329682613277565b848454613203565b825550505050565b600090565b6132b36132a6565b6132be818484613281565b505050565b5b818110156132e2576132d76000826132ab565b6001810190506132c4565b5050565b601f821115613327576132f8816131d1565b613301846131e6565b81016020851015613310578190505b61332461331c856131e6565b8301826132c3565b50505b505050565b600082821c905092915050565b600061334a6000198460080261332c565b1980831691505092915050565b60006133638383613339565b9150826002028217905092915050565b61337c8261293a565b67ffffffffffffffff81111561339557613394612cf1565b5b61339f8254612fc8565b6133aa8282856132e6565b600060209050601f8311600181146133dd57600084156133cb578287015190505b6133d58582613357565b86555061343d565b601f1984166133eb866131d1565b60005b82811015613413578489015182556001820191506020850194506020810190506133ee565b86831015613430578489015161342c601f891682613339565b8355505b6001600288020188555050505b505050505050565b6000606082019050818103600083015261345f8186612991565b905081810360208301526134738185612991565b90506134826040830184612797565b949350505050565b600060408201905061349f6000830185612856565b6134ac6020830184612788565b939250505056fea26469706673582212202d1c67f6eedca9033bb5b1fabfb9f8859b31fb3ebb5ca60e1549fa0569506b5764736f6c63430008140033",
  "linkReferences": {},
  "deployedLinkReferences": {}
}